{
  "contractName": "ReverseAuction",
  "abi": [
    {
      "inputs": [
        {
          "internalType": "uint256",
          "name": "_numberOfWinners",
          "type": "uint256"
        },
        {
          "internalType": "uint256",
          "name": "_maxBidAmount",
          "type": "uint256"
        },
        {
          "internalType": "uint256",
          "name": "_durationInMinutes",
          "type": "uint256"
        }
      ],
      "stateMutability": "payable",
      "type": "constructor"
    },
    {
      "anonymous": false,
      "inputs": [
        {
          "indexed": false,
          "internalType": "address",
          "name": "creator",
          "type": "address"
        },
        {
          "indexed": false,
          "internalType": "uint256",
          "name": "numberOfWinners",
          "type": "uint256"
        },
        {
          "indexed": false,
          "internalType": "uint256",
          "name": "maxBidAmount",
          "type": "uint256"
        },
        {
          "indexed": false,
          "internalType": "uint256",
          "name": "endTime",
          "type": "uint256"
        }
      ],
      "name": "AuctionCreated",
      "type": "event"
    },
    {
      "anonymous": false,
      "inputs": [
        {
          "indexed": false,
          "internalType": "address",
          "name": "bidder",
          "type": "address"
        },
        {
          "indexed": false,
          "internalType": "uint256",
          "name": "amount",
          "type": "uint256"
        }
      ],
      "name": "BidSubmitted",
      "type": "event"
    },
    {
      "anonymous": false,
      "inputs": [
        {
          "indexed": false,
          "internalType": "address",
          "name": "creator",
          "type": "address"
        },
        {
          "indexed": false,
          "internalType": "uint256",
          "name": "amount",
          "type": "uint256"
        }
      ],
      "name": "RemainingFundsReturned",
      "type": "event"
    },
    {
      "anonymous": false,
      "inputs": [
        {
          "indexed": false,
          "internalType": "address[]",
          "name": "winners",
          "type": "address[]"
        },
        {
          "indexed": false,
          "internalType": "uint256",
          "name": "reward",
          "type": "uint256"
        }
      ],
      "name": "WinnersSelected",
      "type": "event"
    },
    {
      "inputs": [],
      "name": "auctionCreator",
      "outputs": [
        {
          "internalType": "address",
          "name": "",
          "type": "address"
        }
      ],
      "stateMutability": "view",
      "type": "function"
    },
    {
      "inputs": [],
      "name": "auctionEndTime",
      "outputs": [
        {
          "internalType": "uint256",
          "name": "",
          "type": "uint256"
        }
      ],
      "stateMutability": "view",
      "type": "function"
    },
    {
      "inputs": [
        {
          "internalType": "uint256",
          "name": "",
          "type": "uint256"
        }
      ],
      "name": "bids",
      "outputs": [
        {
          "internalType": "address",
          "name": "bidder",
          "type": "address"
        },
        {
          "internalType": "uint256",
          "name": "amount",
          "type": "uint256"
        }
      ],
      "stateMutability": "view",
      "type": "function"
    },
    {
      "inputs": [
        {
          "internalType": "address",
          "name": "",
          "type": "address"
        }
      ],
      "name": "hasBid",
      "outputs": [
        {
          "internalType": "bool",
          "name": "",
          "type": "bool"
        }
      ],
      "stateMutability": "view",
      "type": "function"
    },
    {
      "inputs": [],
      "name": "maxBidAmount",
      "outputs": [
        {
          "internalType": "uint256",
          "name": "",
          "type": "uint256"
        }
      ],
      "stateMutability": "view",
      "type": "function"
    },
    {
      "inputs": [],
      "name": "numberOfWinners",
      "outputs": [
        {
          "internalType": "uint256",
          "name": "",
          "type": "uint256"
        }
      ],
      "stateMutability": "view",
      "type": "function"
    },
    {
      "inputs": [],
      "name": "totalLockedAmount",
      "outputs": [
        {
          "internalType": "uint256",
          "name": "",
          "type": "uint256"
        }
      ],
      "stateMutability": "view",
      "type": "function"
    },
    {
      "inputs": [],
      "name": "submitBid",
      "outputs": [],
      "stateMutability": "payable",
      "type": "function"
    },
    {
      "inputs": [],
      "name": "selectWinners",
      "outputs": [],
      "stateMutability": "nonpayable",
      "type": "function"
    }
  ],
  "bytecode": "0x60806040526040516200199b3803806200199b833981810160405281019062000029919062000204565b600083116200006f576040517f08c379a0000000000000000000000000000000000000000000000000000000008152600401620000669062000401565b60405180910390fd5b60008211620000b5576040517f08c379a0000000000000000000000000000000000000000000000000000000008152600401620000ac9062000423565b60405180910390fd5b8183620000c39190620004d5565b34101562000108576040517f08c379a0000000000000000000000000000000000000000000000000000000008152600401620000ff9062000445565b60405180910390fd5b336000806101000a81548173ffffffffffffffffffffffffffffffffffffffff021916908373ffffffffffffffffffffffffffffffffffffffff1602179055508260028190555081600181905550603c81620001659190620004d5565b4262000172919062000478565b600381905550346004819055507fbfc2001685f147773956c30c745f1b33e40df1ad4c1084b4d39c7c41bb7f668560008054906101000a900473ffffffffffffffffffffffffffffffffffffffff16600254600154600354604051620001dc9493929190620003b4565b60405180910390a1505050620005bd565b600081519050620001fe81620005a3565b92915050565b6000806000606084860312156200021a57600080fd5b60006200022a86828701620001ed565b93505060206200023d86828701620001ed565b92505060406200025086828701620001ed565b9150509250925092565b620002658162000536565b82525050565b60006200027a60288362000467565b91507f4e756d626572206f662077696e6e657273206d7573742062652067726561746560008301527f72207468616e20300000000000000000000000000000000000000000000000006020830152604082019050919050565b6000620002e260258362000467565b91507f4d61782062696420616d6f756e74206d7573742062652067726561746572207460008301527f68616e20300000000000000000000000000000000000000000000000000000006020830152604082019050919050565b60006200034a60298362000467565b91507f496e73756666696369656e742066756e6473206c6f636b656420666f7220746860008301527f652061756374696f6e00000000000000000000000000000000000000000000006020830152604082019050919050565b620003ae816200056a565b82525050565b6000608082019050620003cb60008301876200025a565b620003da6020830186620003a3565b620003e96040830185620003a3565b620003f86060830184620003a3565b95945050505050565b600060208201905081810360008301526200041c816200026b565b9050919050565b600060208201905081810360008301526200043e81620002d3565b9050919050565b6000602082019050818103600083015262000460816200033b565b9050919050565b600082825260208201905092915050565b600062000485826200056a565b915062000492836200056a565b9250827fffffffffffffffffffffffffffffffffffffffffffffffffffffffffffffffff03821115620004ca57620004c962000574565b5b828201905092915050565b6000620004e2826200056a565b9150620004ef836200056a565b9250817fffffffffffffffffffffffffffffffffffffffffffffffffffffffffffffffff04831182151516156200052b576200052a62000574565b5b828202905092915050565b600062000543826200054a565b9050919050565b600073ffffffffffffffffffffffffffffffffffffffff82169050919050565b6000819050919050565b7f4e487b7100000000000000000000000000000000000000000000000000000000600052601160045260246000fd5b620005ae816200056a565b8114620005ba57600080fd5b50565b6113ce80620005cd6000396000f3fe6080604052600436106100865760003560e01c80634c9981f6116100595780634c9981f614610136578063677f8c14146101615780638acfaca91461018c578063c334b6b2146101b7578063d2639dbf146101c157610086565b806305a9f2741461008b5780631a0de74c146100b65780634423c5f1146100cd5780634b449cba1461010b575b600080fd5b34801561009757600080fd5b506100a06101fe565b6040516100ad9190611161565b60405180910390f35b3480156100c257600080fd5b506100cb610204565b005b3480156100d957600080fd5b506100f460048036038101906100ef9190610d6b565b610a1b565b60405161010292919061102d565b60405180910390f35b34801561011757600080fd5b50610120610a6f565b60405161012d9190611161565b60405180910390f35b34801561014257600080fd5b5061014b610a75565b6040516101589190611161565b60405180910390f35b34801561016d57600080fd5b50610176610a7b565b6040516101839190611012565b60405180910390f35b34801561019857600080fd5b506101a1610a9f565b6040516101ae9190611161565b60405180910390f35b6101bf610aa5565b005b3480156101cd57600080fd5b506101e860048036038101906101e39190610d42565b610cf8565b6040516101f59190611086565b60405180910390f35b60045481565b60008054906101000a900473ffffffffffffffffffffffffffffffffffffffff1673ffffffffffffffffffffffffffffffffffffffff163373ffffffffffffffffffffffffffffffffffffffff1614610292576040517f08c379a000000000000000000000000000000000000000000000000000000000815260040161028990611141565b60405180910390fd5b60035442116102d6576040517f08c379a00000000000000000000000000000000000000000000000000000000081526004016102cd906110a1565b60405180910390fd5b6002546005805490501015610320576040517f08c379a000000000000000000000000000000000000000000000000000000000815260040161031790611121565b60405180910390fd5b60005b60058054905081101561066e57600060018261033f91906111c6565b90505b60058054905081101561065a5760058181548110610389577f4e487b7100000000000000000000000000000000000000000000000000000000600052603260045260246000fd5b906000526020600020906002020160010154600583815481106103d5577f4e487b7100000000000000000000000000000000000000000000000000000000600052603260045260246000fd5b906000526020600020906002020160010154111561064757600060058381548110610429577f4e487b7100000000000000000000000000000000000000000000000000000000600052603260045260246000fd5b90600052602060002090600202016040518060400160405290816000820160009054906101000a900473ffffffffffffffffffffffffffffffffffffffff1673ffffffffffffffffffffffffffffffffffffffff1673ffffffffffffffffffffffffffffffffffffffff1681526020016001820154815250509050600582815481106104de577f4e487b7100000000000000000000000000000000000000000000000000000000600052603260045260246000fd5b906000526020600020906002020160058481548110610526577f4e487b7100000000000000000000000000000000000000000000000000000000600052603260045260246000fd5b90600052602060002090600202016000820160009054906101000a900473ffffffffffffffffffffffffffffffffffffffff168160000160006101000a81548173ffffffffffffffffffffffffffffffffffffffff021916908373ffffffffffffffffffffffffffffffffffffffff1602179055506001820154816001015590505080600583815481106105e3577f4e487b7100000000000000000000000000000000000000000000000000000000600052603260045260246000fd5b906000526020600020906002020160008201518160000160006101000a81548173ffffffffffffffffffffffffffffffffffffffff021916908373ffffffffffffffffffffffffffffffffffffffff16021790555060208201518160010155905050505b8080610652906112f2565b915050610342565b508080610666906112f2565b915050610323565b50600060025467ffffffffffffffff8111156106b3577f4e487b7100000000000000000000000000000000000000000000000000000000600052604160045260246000fd5b6040519080825280602002602001820160405280156106e15781602001602082028036833780820191505090505b5090506000600560016002546106f79190611276565b8154811061072e577f4e487b7100000000000000000000000000000000000000000000000000000000600052603260045260246000fd5b906000526020600020906002020160010154905060005b6002548110156108f35760058181548110610789577f4e487b7100000000000000000000000000000000000000000000000000000000600052603260045260246000fd5b906000526020600020906002020160000160009054906101000a900473ffffffffffffffffffffffffffffffffffffffff168382815181106107f4577f4e487b7100000000000000000000000000000000000000000000000000000000600052603260045260246000fd5b602002602001019073ffffffffffffffffffffffffffffffffffffffff16908173ffffffffffffffffffffffffffffffffffffffff168152505060058181548110610868577f4e487b7100000000000000000000000000000000000000000000000000000000600052603260045260246000fd5b906000526020600020906002020160000160009054906101000a900473ffffffffffffffffffffffffffffffffffffffff1673ffffffffffffffffffffffffffffffffffffffff166108fc839081150290604051600060405180830381858888f193505050501580156108df573d6000803e3d6000fd5b5080806108eb906112f2565b915050610745565b50600060025482610904919061121c565b6004546109119190611276565b905060008111156109845760008054906101000a900473ffffffffffffffffffffffffffffffffffffffff1673ffffffffffffffffffffffffffffffffffffffff166108fc829081150290604051600060405180830381858888f19350505050158015610982573d6000803e3d6000fd5b505b7fbce1110e4d191bdd24f620b230f50dcae6ccb1e5fca842d67093829415bf782b83836040516109b5929190611056565b60405180910390a17f11e25b443cee40f316279cd9e1a51c3ac461505ce9b72f8e9fb7a29d8adca7d860008054906101000a900473ffffffffffffffffffffffffffffffffffffffff1682604051610a0e92919061102d565b60405180910390a1505050565b60058181548110610a2b57600080fd5b90600052602060002090600202016000915090508060000160009054906101000a900473ffffffffffffffffffffffffffffffffffffffff16908060010154905082565b60035481565b60015481565b60008054906101000a900473ffffffffffffffffffffffffffffffffffffffff1681565b60025481565b600354421115610aea576040517f08c379a0000000000000000000000000000000000000000000000000000000008152600401610ae1906110e1565b60405180910390fd5b600154341115610b2f576040517f08c379a0000000000000000000000000000000000000000000000000000000008152600401610b26906110c1565b60405180910390fd5b600660003373ffffffffffffffffffffffffffffffffffffffff1673ffffffffffffffffffffffffffffffffffffffff16815260200190815260200160002060009054906101000a900460ff1615610bbc576040517f08c379a0000000000000000000000000000000000000000000000000000000008152600401610bb390611101565b60405180910390fd5b600560405180604001604052803373ffffffffffffffffffffffffffffffffffffffff16815260200134815250908060018154018082558091505060019003906000526020600020906002020160009091909190915060008201518160000160006101000a81548173ffffffffffffffffffffffffffffffffffffffff021916908373ffffffffffffffffffffffffffffffffffffffff1602179055506020820151816001015550506001600660003373ffffffffffffffffffffffffffffffffffffffff1673ffffffffffffffffffffffffffffffffffffffff16815260200190815260200160002060006101000a81548160ff0219169083151502179055507f0862512267aa2317caa9475b7e771425e6b897509aade0be0d8fc6f5ce5fdd183334604051610cee92919061102d565b60405180910390a1565b60066020528060005260406000206000915054906101000a900460ff1681565b600081359050610d278161136a565b92915050565b600081359050610d3c81611381565b92915050565b600060208284031215610d5457600080fd5b6000610d6284828501610d18565b91505092915050565b600060208284031215610d7d57600080fd5b6000610d8b84828501610d2d565b91505092915050565b6000610da08383610dac565b60208301905092915050565b610db5816112aa565b82525050565b610dc4816112aa565b82525050565b6000610dd58261118c565b610ddf81856111a4565b9350610dea8361117c565b8060005b83811015610e1b578151610e028882610d94565b9750610e0d83611197565b925050600181019050610dee565b5085935050505092915050565b610e31816112bc565b82525050565b6000610e446018836111b5565b91507f41756374696f6e206973207374696c6c206f6e676f696e6700000000000000006000830152602082019050919050565b6000610e84601a836111b5565b91507f4269642065786365656473206d61782062696420616d6f756e740000000000006000830152602082019050919050565b6000610ec46011836111b5565b91507f41756374696f6e2068617320656e6465640000000000000000000000000000006000830152602082019050919050565b6000610f046020836111b5565b91507f596f75206861766520616c7265616479207375626d69747465642061206269646000830152602082019050919050565b6000610f446021836111b5565b91507f4e6f7420656e6f756768206269647320746f2073656c6563742077696e6e657260008301527f73000000000000000000000000000000000000000000000000000000000000006020830152604082019050919050565b6000610faa6030836111b5565b91507f4f6e6c79207468652061756374696f6e2063726561746f722063616e2070657260008301527f666f726d207468697320616374696f6e000000000000000000000000000000006020830152604082019050919050565b61100c816112e8565b82525050565b60006020820190506110276000830184610dbb565b92915050565b60006040820190506110426000830185610dbb565b61104f6020830184611003565b9392505050565b600060408201905081810360008301526110708185610dca565b905061107f6020830184611003565b9392505050565b600060208201905061109b6000830184610e28565b92915050565b600060208201905081810360008301526110ba81610e37565b9050919050565b600060208201905081810360008301526110da81610e77565b9050919050565b600060208201905081810360008301526110fa81610eb7565b9050919050565b6000602082019050818103600083015261111a81610ef7565b9050919050565b6000602082019050818103600083015261113a81610f37565b9050919050565b6000602082019050818103600083015261115a81610f9d565b9050919050565b60006020820190506111766000830184611003565b92915050565b6000819050602082019050919050565b600081519050919050565b6000602082019050919050565b600082825260208201905092915050565b600082825260208201905092915050565b60006111d1826112e8565b91506111dc836112e8565b9250827fffffffffffffffffffffffffffffffffffffffffffffffffffffffffffffffff038211156112115761121061133b565b5b828201905092915050565b6000611227826112e8565b9150611232836112e8565b9250817fffffffffffffffffffffffffffffffffffffffffffffffffffffffffffffffff048311821515161561126b5761126a61133b565b5b828202905092915050565b6000611281826112e8565b915061128c836112e8565b92508282101561129f5761129e61133b565b5b828203905092915050565b60006112b5826112c8565b9050919050565b60008115159050919050565b600073ffffffffffffffffffffffffffffffffffffffff82169050919050565b6000819050919050565b60006112fd826112e8565b91507fffffffffffffffffffffffffffffffffffffffffffffffffffffffffffffffff8214156113305761132f61133b565b5b600182019050919050565b7f4e487b7100000000000000000000000000000000000000000000000000000000600052601160045260246000fd5b611373816112aa565b811461137e57600080fd5b50565b61138a816112e8565b811461139557600080fd5b5056fea26469706673582212204cf5e7d02a99e0b410622c1ef606090ab3f99523dc8b3f65f3c214bb9ba39fd164736f6c63430008000033",
  "immutableReferences": {},
  "source": "// SPDX-License-Identifier: MIT\r\npragma solidity ^0.8.0;\r\n\r\ncontract ReverseAuction {\r\n    address public auctionCreator;\r\n    uint public maxBidAmount;\r\n    uint public numberOfWinners;\r\n    uint public auctionEndTime;\r\n    uint public totalLockedAmount;\r\n\r\n    struct Bid {\r\n        address bidder;\r\n        uint amount;\r\n    }\r\n\r\n    Bid[] public bids;\r\n    mapping(address => bool) public hasBid;\r\n\r\n    event AuctionCreated(address creator, uint numberOfWinners, uint maxBidAmount, uint endTime);\r\n    event BidSubmitted(address bidder, uint amount);\r\n    event WinnersSelected(address[] winners, uint reward);\r\n    event RemainingFundsReturned(address creator, uint amount);\r\n\r\n    modifier onlyCreator() {\r\n        require(msg.sender == auctionCreator, \"Only the auction creator can perform this action\");\r\n        _;\r\n    }\r\n\r\n    modifier auctionActive() {\r\n        require(block.timestamp <= auctionEndTime, \"Auction has ended\");\r\n        _;\r\n    }\r\n\r\n    constructor(uint _numberOfWinners, uint _maxBidAmount, uint _durationInMinutes) payable {\r\n        require(_numberOfWinners > 0, \"Number of winners must be greater than 0\");\r\n        require(_maxBidAmount > 0, \"Max bid amount must be greater than 0\");\r\n        require(msg.value >= _numberOfWinners * _maxBidAmount, \"Insufficient funds locked for the auction\");\r\n\r\n        auctionCreator = msg.sender;\r\n        numberOfWinners = _numberOfWinners;\r\n        maxBidAmount = _maxBidAmount;\r\n        auctionEndTime = block.timestamp + (_durationInMinutes * 1 minutes);\r\n        totalLockedAmount = msg.value;\r\n\r\n        emit AuctionCreated(auctionCreator, numberOfWinners, maxBidAmount, auctionEndTime);\r\n    }\r\n\r\n    function submitBid() external payable auctionActive {\r\n        require(msg.value <= maxBidAmount, \"Bid exceeds max bid amount\");\r\n        require(!hasBid[msg.sender], \"You have already submitted a bid\");\r\n\r\n        bids.push(Bid({\r\n            bidder: msg.sender,\r\n            amount: msg.value\r\n        }));\r\n        hasBid[msg.sender] = true;\r\n\r\n        emit BidSubmitted(msg.sender, msg.value);\r\n    }\r\n\r\n    function selectWinners() external onlyCreator {\r\n        require(block.timestamp > auctionEndTime, \"Auction is still ongoing\");\r\n        require(bids.length >= numberOfWinners, \"Not enough bids to select winners\");\r\n\r\n        // Sort bids by amount (ascending order)\r\n        for (uint i = 0; i < bids.length; i++) {\r\n            for (uint j = i + 1; j < bids.length; j++) {\r\n                if (bids[i].amount > bids[j].amount) {\r\n                    Bid memory temp = bids[i];\r\n                    bids[i] = bids[j];\r\n                    bids[j] = temp;\r\n                }\r\n            }\r\n        }\r\n\r\n        address[] memory winners = new address[](numberOfWinners);\r\n        uint reward = bids[numberOfWinners - 1].amount;\r\n\r\n        // Distribute rewards to winners\r\n        for (uint i = 0; i < numberOfWinners; i++) {\r\n            winners[i] = bids[i].bidder;\r\n            payable(bids[i].bidder).transfer(reward);\r\n        }\r\n\r\n        // Return remaining funds to the creator\r\n        uint remainingFunds = totalLockedAmount - (reward * numberOfWinners);\r\n        if (remainingFunds > 0) {\r\n            payable(auctionCreator).transfer(remainingFunds);\r\n        }\r\n\r\n        emit WinnersSelected(winners, reward);\r\n        emit RemainingFundsReturned(auctionCreator, remainingFunds);\r\n    }\r\n}\r\n",
  "sourcePath": "E:\\Hackathon\\Deepstack Assignment\\contracts\\ReverseAuction.sol",
  "compiler": {
    "name": "solc",
    "version": "0.8.0+commit.c7dfd78e.Emscripten.clang"
  },
  "schemaVersion": "3.4.16",
  "updatedAt": "2024-12-29T17:45:16.152Z",
  "devdoc": {
    "kind": "dev",
    "methods": {},
    "version": 1
  },
  "userdoc": {
    "kind": "user",
    "methods": {},
    "version": 1
  }
}